:1000000012C02CC02BC02AC029C028C027C026C0BF
:1000100025C024C023C022C021C020C01FC01EC0D4
:100020001DC01CC01BC011241FBECFE5D4E0DEBF25
:10003000CDBF10E0A0E6B0E0E8E5FBE002C005902F
:100040000D92A237B107D9F710E0A2E7B0E001C0E6
:100050001D92A337B107E1F769D27CC5D1CFC19812
:10006000C098282F2170220F220F220F982F9270F4
:10007000990F292B83FB992790F9292B847090E005
:1000800095958795282B25BBC19AC198662321F0A9
:1000900088EB8A95F1F704C089E995E10197F1F7BA
:1000A0000000C198C0980895C198C09A282F217067
:1000B000220F220F220F982F9270990F292B83FB6A
:1000C000992790F9292B847090E095958795282B96
:1000D00025BBC19AC19888EB8A95F1F70000C198B9
:1000E000C0980895CF93E82FF0E0E05AFF4FC08109
:1000F0008C2F82958F70D8DF8C2F8F70CF91D4CFBB
:100100004F925F926F927F928F929F92AF92BF9227
:10011000CF92DF92EF92FF921F93CF93DF93CDB7F1
:10012000DEB728970FB6F894DEBF0FBECDBF6B01C8
:100130007C0160E080E02D833E834F8358878FDF12
:1001400060E081E08CDF61E088E089DF61E080E0F1
:1001500086DFC701B601F1D34B015C012D813E81E1
:100160004F815885CA01B901E8D32B013C0180E8D1
:1001700088168DE898068BE5A806B10464F460E85B
:10018000C62E6DE8D62E6BE5E62EF12CC818D908E0
:10019000EA08FB0809C07501640190E8C91A9DE8E6
:1001A000D90A9BE5E90AF10880917200882311F0D1
:1001B0008DE001C080E196DF8FE094DF8AE092DF7E
:1001C00011E080E896E9A8E9B0E089839A83AB83DF
:1001D000BC83812C912C5401C701B60129813A813D
:1001E0004B815C81A1D22115310541055105A9F052
:1001F000822F2D833E834F83588774DF2D813E816C
:100200004F81588569817A818B819C817ED2C61A03
:10021000D70AE80AF90A10E00DC0C114D104E104BC
:10022000F10431F0112321F08AE05CDF11E002C01B
:1002300080E058DF91E089169104A104B10431F007
:10024000A4E08A169104A104B10411F48AE04ADF03
:10025000BFEF8B1A9B0AAB0ABB0A69817A818B813B
:100260009C812AE030E040E050E05ED229833A836E
:100270004B835C83E8E08E169104A104B10409F07D
:10028000ABCF8AE02FDF8BE02DDF8CE02BDF61E04E
:100290008CE0E5DE61E080E0E2DE809172008823A0
:1002A00011F081E101C08EE01DDF8FE01BDF8AE0ED
:1002B00019DF11E050E8852E56E9952E58E9A52E54
:1002C000B12CC12CD12C7601C301B201A50194013E
:1002D0002BD2211531054105510599F0822F2D832F
:1002E0003E834F835887FEDE2D813E814F815885A6
:1002F000C501B4010AD2461A570A680A790A10E001
:100300000DC0411451046104710431F0112321F036
:100310008AE0E8DE11E002C080E0E4DEF1E0CF1622
:10032000D104E104F10431F084E0C816D104E10401
:10033000F10411F48AE0D6DE9FEFC91AD90AE90A5E
:10034000F90AC501B4012AE030E040E050E0ECD108
:1003500049015A01A8E0CA16D104E104F10409F0E8
:10036000B3CF8AE0BFDE8BE0BDDE8CE028960FB60F
:10037000F894DEBF0FBECDBFDF91CF911F91FF90EC
:10038000EF90DF90CF90BF90AF909F908F907F9035
:100390006F905F904F90A6CE2FEA8FE793E42150A5
:1003A00080409040E1F700C0000061E082E057DE4D
:1003B00061E082E054DE61E08BE051DE61E080E0EC
:1003C0004EDE61E08FE04BDE60E080E048DE60E022
:1003D00081E045DE61E084E042DE61E080E03FDE16
:1003E00081E062DE89E060DE81E05EDE86E05CDE88
:1003F00081E05ADE87E058DE80E056DE83E054DE9E
:1004000081E052DE87E050DE81E04EDE87E04CDEA8
:1004100081E04ADE87E048DE80E046DE80E044DEC0
:1004200061E084E01CDE61E088E019DE81E03CDE12
:100430008FE03ADE81E038DE81E036DE80E034DED7
:100440008FE032DE81E030DE81E02EDE81E02CDEE6
:100450008EE02ADE80E028DE81E026DE81E024DEF8
:100460008FE022DE80E020DE80E01EDE61E088E0BA
:10047000F6DD61E080E0F3CD949897989698959892
:1004800094988FEF95E30197F1F700C0949A8FEF5E
:1004900095E30197F1F700C094988FEF95E30197EA
:1004A000F1F700C09698969A96989798979A979889
:1004B0000895882311F0959A01C095989698969A78
:1004C00096980895CF92DF92EF92FF92CF93DF93A9
:1004D00020E030E040E85FE4DAD220E23CEB4EEB93
:1004E0005CE4C3D12FD26B017C01C0E0D0E0D70126
:1004F000C6010C2E04C0B695A795979587950A94CA
:10050000D2F78170D6DF2196C032D10581F7C8E0DD
:1005100080E0CFDFC150E1F79798979A9798DF91E5
:10052000CF91FF90EF90DF90CF90089587B38360D5
:1005300087BBC29A8FEF84BB15BA81B3806F81BB32
:1005400082B38C6082BB98DF60E876E988E99BE43F
:10055000B9DF22DF20E030E44CE156E460E876E9E0
:1005600088E99BE4CDDD80B3D0B29D2D9470D92E67
:100570008870D82AD694D694D0E0E0E49E2EFCE190
:100580008F2EA6E47A2E10E806E9B8E9FB2ECBE41C
:10059000EC2E2D2D30E090B380B384709870892BB1
:1005A00090E095958795959587952817390799F344
:1005B00086B3B29915C081E090917200911180E0EC
:1005C000809372002D2F392D482D572D612F702FBC
:1005D0008F2D9E2D95DDB29BFECFCD2DDC2ED9CF5C
:1005E000C0B380B3C8708470C82BC695C69583E02D
:1005F000D8122DC0C23009F042C080917200811122
:1006000013C02D2F392D482D572D612F702F8F2D71
:100610009E2DC3D05B016C0120E23CEB4EE35CE419
:1006200020D11816DCF244C020E030E040E251E472
:100630006D2F792D882D972D2AD25B016C0120E832
:1006400036E948E15BE40DD1181644F252C092E05D
:10065000D91671F0D11006C0C13009F4BFCFC23035
:1006600089F4BCCF91E0D91207C0C33009F4B6CFEA
:10067000CC2309F4B3CF06C083E0D81203C0C13045
:1006800009F4ACCF80917200811121C02D2F392D3A
:10069000482D572D612F702F8F2D9E2D7DD05B0102
:1006A0006C0120E034E244E759E4EDD187FD96CFB8
:1006B000B501C60107DF2D2F392D482D572DB50166
:1006C000C6011EDD1A2D0B2DFC2CED2C87CF20E052
:1006D00030E040E251E46D2F792D882D972DC5D063
:1006E0005B016C0120E030E040E85FE3CCD187FDA6
:1006F00075CF9501A601612F702F8F2D9E2D00DDE6
:10070000DA2D9B2C8C2C7D2C69CFDB018F939F9352
:100710002DD0BF91AF91A29F800D911DA39F900DF1
:10072000B29F900D11240895A1E21A2EAA1BBB1BA3
:10073000FD010DC0AA1FBB1FEE1FFF1FA217B307AD
:10074000E407F50720F0A21BB30BE40BF50B661FC3
:10075000771F881F991F1A9469F760957095809587
:1007600090959B01AC01BD01CF01089509D0A59FD3
:10077000900DB49F900DA49F800D911D112408959C
:10078000A29FB001B39FC001A39F01D0B29F700D83
:10079000811D1124911D08955058BB27AA270ED002
:1007A00038C129D130F02ED120F031F49F3F11F41F
:1007B0001EF41EC10EF4E095E7FB14C1E92F3AD1F7
:1007C00080F3BA17620773078407950718F071F46E
:1007D0009EF552C10EF4E0950B2EBA2FA02D0B0101
:1007E000B90190010C01CA01A0011124FF27591B76
:1007F00099F0593F50F4503E68F11A16F040A22F7C
:10080000232F342F4427585FF3CF469537952795EC
:10081000A795F0405395C9F77EF41F16BA0B620BEB
:10082000730B840BBAF09150A1F0FF0FBB1F661F32
:10083000771F881FC2F70EC0BA0F621F731F841F75
:1008400048F4879577956795B795F7959E3F08F09B
:10085000B3CF9395880F08F09927EE0F979587955A
:1008600008959CD008F481E008950CD0D2C0CAD07D
:1008700040F0C1D030F021F45F3F19F0B3C0511106
:10088000FCC0B6C0D7D098F39923C9F35523B1F370
:10089000951B550BBB27AA2762177307840738F0EF
:1008A0009F5F5F4F220F331F441FAA1FA9F333D04E
:1008B0000E2E3AF0E0E830D091505040E695001C02
:1008C000CAF729D0FE2F27D0660F771F881FBB1FBE
:1008D000261737074807AB07B0E809F0BB0B802D98
:1008E000BF01FF2793585F4F2AF09E3F510568F0E4
:1008F00079C0C3C05F3FECF3983EDCF386957795F3
:100900006795B795F7959F5FC9F7880F911D9695E5
:10091000879597F90895E1E0660F771F881FBB1F41
:10092000621773078407BA0720F0621B730B840BEE
:10093000BA0BEE1F88F7E095089504D06894B111C2
:100940009CC008957FD088F09F5790F0B92F9927C9
:10095000B751A0F0D1F0660F771F881F991F1AF0CA
:10096000BA95C9F712C0B13081F086D0B1E00895D0
:1009700083C0672F782F8827B85F39F0B93FCCF351
:10098000869577956795B395D9F73EF490958095C0
:10099000709561957F4F8F4F9F4F0895990F000875
:1009A000550FAA0BE0E8FEEF16161706E807F90741
:1009B000C0F012161306E407F50798F0621B730BDC
:1009C000840B950B39F40A2661F0232B242B252B5D
:1009D00021F408950A2609F4A140A6958FEF811D00
:1009E000811D089597F99F6780E870E060E00895A1
:1009F0009FEF80EC089500240A9416161706180637
:100A00000906089500240A94121613061406050612
:100A10000895092E0394000C11F4882352F0BB0FA3
:100A200040F4BF2B11F460FF04C06F5F7F4F8F4F06
:100A30009F4F089557FD9058440F551F59F05F3F41
:100A400071F04795880F97FB991F61F09F3F79F0F0
:100A500087950895121613061406551FF2CF469572
:100A6000F1DF08C0161617061806991FF1CF8695F4
:100A70007105610508940895E894BB2766277727D8
:100A8000CB0197F908958ADF08F48FEF08950BD012
:100A9000C0CFB1DF28F0B6DF18F0952309F0A2CF60
:100AA000A7CF1124EACFC6DFA0F3959FD1F3950F0E
:100AB00050E0551F629FF001729FBB27F00DB11DE2
:100AC000639FAA27F00DB11DAA1F649F6627B00D72
:100AD000A11D661F829F2227B00DA11D621F739F5B
:100AE000B00DA11D621F839FA00D611D221F749F69
:100AF0003327A00D611D231F849F600D211D822FB0
:100B0000762F6A2F11249F5750408AF0E1F08823F6
:100B10004AF0EE0FFF1FBB1F661F771F881F915003
:100B20005040A9F79E3F510570F05CCFA6CF5F3FC4
:100B3000ECF3983EDCF3869577956795B795F79536
:100B4000E7959F5FC1F7FE2B880F911D96958795BE
:080B500097F90895F894FFCF16
:100B58003031323334353637383990487A66733A1B
:020B680000018A
:00000001FF
