:100000000C942A000C943F000C943F000C943F0089
:100010000C943F000C943F000C943F000C943F0064
:100020000C943F000C943F000C943F000C943F0054
:100030000C943F000C943F000C943F000C943F0044
:100040000C943F000C943F000C943F000C943F0034
:100050000C943F0011241FBECFE5D4E0DEBFCDBF1E
:1000600010E0A0E6B0E0EEE1FAE002C005900D92EB
:10007000A037B107D9F70E9402020C940D050C9429
:1000800000008FEF8ABB88E08BBB0895DB98D8987F
:10009000D998DA98DB988FEF95E30197F1F700C0D4
:1000A000DB9A8FEF95E30197F1F700C0DB988FEFB4
:1000B00095E30197F1F700C0D998D99AD998D898C3
:1000C000D89AD8980895882311F0DA9A01C0DA985E
:1000D000D998D99AD9980895CF92DF92EF92FF924A
:1000E000CF93DF9320E030E040E85FE40E94AA0471
:1000F00020E23CEB4EEB5CE40E9498030E94050476
:100100006B017C01C0E0D0E0D701C6010C2E04C019
:10011000B695A795979587950A94D2F781700E9416
:1001200063002196C032D10579F7C8E080E00E94D3
:100130006300C150D9F7D898D89AD898DF91CF9159
:10014000FF90EF90DF90CF900895DF98DE9885BB09
:10015000DF9ADF988150833028F489E995E101978F
:10016000F1F703C098EB9A95F1F700000895DF9836
:10017000DE9AE82FF0E0E05AFF4F808185BBDF9ADE
:10018000DF9888EB8A95F1F7000008954F925F920F
:100190006F927F928F929F92AF92BF92CF92DF9297
:1001A000EF92FF921F93CF93DF93CDB7DEB72897DF
:1001B0000FB6F894DEBF0FBECDBF6B017C0181E0AE
:1001C0002D833E834F8358870E94A50080E80E94BC
:1001D000A500C701B6010E9400044B015C012D81FE
:1001E0003E814F815885CA01B9010E9400042B014C
:1001F0003C018DE00E94B7008FE00E94B7008AE0CA
:100200000E94B70011E080E896E9A8E9B0E0898390
:100210009A83AB83BC83C12CD12C7601C501B40178
:1002200029813A814B815C810E94F30221153105BD
:1002300041055105B9F0822F2D833E834F835887A6
:100240000E94B7002D813E814F81588569817A8156
:100250008B819C810E94E302861A970AA80AB90A38
:1002600010E00FC081149104A104B10439F01123EE
:1002700029F08AE00E94B70011E003C080E00E94EC
:10028000B70091E0C916D104E104F10431F0A4E013
:10029000CA16D104E104F10419F48AE00E94B700FF
:1002A000BFEFCB1ADB0AEB0AFB0A69817A818B81EB
:1002B0009C812AE030E040E050E00E94F302298374
:1002C0003A834B835C83E8E0CE16D104E104F10469
:1002D00009F0A4CF8AE00E94B7008BE00E94B7002B
:1002E0008CE00E94B70080EC0E94A5008EE00E9486
:1002F000B7008FE00E94B7008AE00E94B70011E0CB
:1003000080E8882E86E9982E88E9A82EB12CC12C89
:10031000D12C7601C301B201A50194010E94F30220
:100320002115310541055105A9F0822F2D833E830A
:100330004F8358870E94B7002D813E814F81588599
:10034000C501B4010E94E302461A570A680A790AF5
:1003500010E00FC0411451046104710439F01123FD
:1003600029F08AE00E94B70011E003C080E00E94FB
:10037000B700F1E0CF16D104E104F10431F084E0DC
:10038000C816D104E104F10419F48AE00E94B70010
:100390009FEFC91AD90AE90AF90AC501B4012AE08E
:1003A00030E040E050E00E94F30249015A01A8E029
:1003B000CA16D104E104F10409F0ACCF8AE00E942E
:1003C000B7008BE00E94B7008CE028960FB6F89437
:1003D000DEBF0FBECDBFDF91CF911F91FF90EF9099
:1003E000DF90CF90BF90AF909F908F907F906F9055
:1003F0005F904F900C94B7008BE30E94A5008CE0B7
:100400000C94A50017BA8FEF88BB84BB15BA0E9465
:1004100041000E94460060E876E988E19BE40E9482
:100420006C000E94FC0120E034E244E759E460E8FB
:1004300076E988E19BE40E94C60086B346B3447027
:100440008870482B46954695E12C612C64E2762E07
:1004500074E7872EE9E49E2EF0E8FF2E06E918E106
:10046000DBE4AA24A39496B386B3242F30E08470EF
:100470009870892B90E09595879595958795281785
:10048000390721F4B09B02C0C42F27C0B09B27C0FE
:10049000C6B386B3C8708470C82BC695C695433062
:1004A00031F5C23009F046C0EE2081F120E030E0A5
:1004B00040E251E4B301C4010E94AA04B62EC72E43
:1004C000D82EE92E20E836E948E15BE40E94940347
:1004D00018160CF069C0EE24E3944C2FC4CFEA2424
:1004E00011F0DC9A01C0DC98B09BFECFCDCF42303A
:1004F00019F4CC23C9F21EC0411103C0C130D1F49C
:10050000D3CF4130B9F4C330A9F4CECF9301A401C5
:100510006F2D702F812F9D2F0E943003562EB72EE6
:100520006C0120E23CEB4EE35CE40E94940318165D
:10053000A4F215C0E11024C09301A4016F2D702F07
:10054000812F9D2F0E942F03562EB72E6C0120E085
:1005500034E244E759E40E94A60487FDBECF652D2E
:100560007B2DC6010E946C009301A401652D7B2D9B
:10057000C6010E94C600F52C0B2D1C2DDD2DADCF24
:1005800020E030E040E251E4B301C4010E9498034E
:10059000B62EC72ED82EE92E20E030E040E85FE3EB
:1005A0000E94A60487FD97CF2B2D3C2D4D2D5E2D4F
:1005B0006F2D702F812F9D2F0E94C6006B2C7C2CDD
:1005C0008D2C9E2C88CFDB018F939F930E94150367
:1005D000BF91AF91A29F800D911DA39F900DB29FDF
:1005E000900D11240895A1E21A2EAA1BBB1BFD0138
:1005F0000DC0AA1FBB1FEE1FFF1FA217B307E40702
:10060000F50720F0A21BB30BE40BF50B661F771F59
:10061000881F991F1A9469F7609570958095909539
:100620009B01AC01BD01CF0108950E942003A59F4D
:10063000900DB49F900DA49F800D911D11240895DD
:10064000A29FB001B39FC001A39F700D811D112413
:10065000911DB29F700D811D1124911D0895505858
:10066000BB27AA270ED038C129D130F02ED120F0D7
:1006700031F49F3F11F41EF41EC10EF4E095E7FB28
:1006800014C1E92F3AD180F3BA17620773078407C0
:10069000950718F071F49EF552C10EF4E0950B2EFB
:1006A000BA2FA02D0B01B90190010C01CA01A001C4
:1006B0001124FF27591B99F0593F50F4503E68F11F
:1006C0001A16F040A22F232F342F4427585FF3CF60
:1006D000469537952795A795F0405395C9F77EF431
:1006E0001F16BA0B620B730B840BBAF09150A1F07A
:1006F000FF0FBB1F661F771F881FC2F70EC0BA0F00
:10070000621F731F841F48F4879577956795B79587
:10071000F7959E3F08F0B3CF9395880F08F099277F
:10072000EE0F9795879508959CD008F481E0089581
:100730000CD0D2C0CAD040F0C1D030F021F45F3F1D
:1007400019F0B3C05111FCC0B6C0D7D098F39923AB
:10075000C9F35523B1F3951B550BBB27AA27621785
:100760007307840738F09F5F5F4F220F331F441FCA
:10077000AA1FA9F333D00E2E3AF0E0E830D0915002
:100780005040E695001CCAF729D0FE2F27D0660FEF
:10079000771F881FBB1F261737074807AB07B0E82E
:1007A00009F0BB0B802DBF01FF2793585F4F2AF044
:1007B0009E3F510568F079C0C3C05F3FECF3983E9F
:1007C000DCF3869577956795B795F7959F5FC9F7A1
:1007D000880F911D9695879597F90895E1E0660F2A
:1007E000771F881FBB1F621773078407BA0720F0A3
:1007F000621B730B840BBA0BEE1F88F7E09508950C
:1008000004D06894B1119CC008957FD088F09F57A0
:1008100090F0B92F9927B751A0F0D1F0660F771F4C
:10082000881F991F1AF0BA95C9F712C0B13081F02C
:1008300086D0B1E0089583C0672F782F8827B85FEE
:1008400039F0B93FCCF3869577956795B395D9F78D
:100850003EF490958095709561957F4F8F4F9F4F97
:100860000895990F0008550FAA0BE0E8FEEF161641
:100870001706E807F907C0F012161306E407F50794
:1008800098F0621B730B840B950B39F40A2661F008
:10089000232B242B252B21F408950A2609F4A140AB
:1008A000A6958FEF811D811D089597F99F6780E8B8
:1008B00070E060E008959FEF80EC089500240A94B2
:1008C0001616170618060906089500240A9412162B
:1008D0001306140605060895092E0394000C11F45E
:1008E000882352F0BB0F40F4BF2B11F460FF04C00B
:1008F0006F5F7F4F8F4F9F4F089557FD9058440F64
:10090000551F59F05F3F71F04795880F97FB991F6E
:1009100061F09F3F79F0879508951216130614062B
:10092000551FF2CF4695F1DF08C0161617061806B8
:10093000991FF1CF86957105610508940895E89493
:10094000BB2766277727CB0197F908958ADF08F43C
:100950008FEF08950BD0C0CFB1DF28F0B6DF18F0CD
:10096000952309F0A2CFA7CF1124EACFC6DFA0F3C9
:10097000959FD1F3950F50E0551F629FF001729F34
:10098000BB27F00DB11D639FAA27F00DB11DAA1F53
:10099000649F6627B00DA11D661F829F2227B00DA0
:1009A000A11D621F739FB00DA11D621F839FA00D2B
:1009B000611D221F749F3327A00D611D231F849F7B
:1009C000600D211D822F762F6A2F11249F575040D2
:1009D0008AF0E1F088234AF0EE0FFF1FBB1F661F6D
:1009E000771F881F91505040A9F79E3F510570F026
:1009F0005CCFA6CF5F3FECF3983EDCF3869577950E
:100A00006795B795F795E7959F5FC1F7FE2B880F20
:0E0A1000911D9695879597F90895F894FFCF5C
:100A1E003031323334353637383990487A66733A56
:00000001FF
