:1000000012C02CC02BC02AC029C028C027C026C0BF
:1000100025C024C023C022C021C020C01FC01EC0D4
:100020001DC01CC01BC011241FBECFE5D4E0DEBF25
:10003000CDBF10E0A0E6B0E0E6EEFBE002C0059028
:100040000D92A237B107D9F710E0A2E7B0E001C0E6
:100050001D92A337B107E1F769D2C3C5D1CFC198CB
:10006000C098282F2170220F220F220F982F9270F4
:10007000990F292B83FB992790F9292B847090E005
:1000800095958795282B25BBC19AC198662321F0A9
:1000900088EB8A95F1F704C089E995E10197F1F7BA
:1000A0000000C198C0980895C198C09A282F217067
:1000B000220F220F220F982F9270990F292B83FB6A
:1000C000992790F9292B847090E095958795282B96
:1000D00025BBC19AC19888EB8A95F1F70000C198B9
:1000E000C0980895CF93E82FF0E0E05AFF4FC08109
:1000F0008C2F82958F70D8DF8C2F8F70CF91D4CFBB
:100100004F925F926F927F928F929F92AF92BF9227
:10011000CF92DF92EF92FF921F93CF93DF93CDB7F1
:10012000DEB728970FB6F894DEBF0FBECDBF6B01C8
:100130007C0160E080E02D833E834F8358878FDF12
:1001400060E081E08CDF61E088E089DF61E080E0F1
:1001500086DFC701B60123D44B015C012D813E81AE
:100160004F815885CA01B9011AD42B013C0180E89E
:1001700088168DE898068BE5A806B10464F460E85B
:10018000C62E6DE8D62E6BE5E62EF12CC818D908E0
:10019000EA08FB0809C07501640190E8C91A9DE8E6
:1001A000D90A9BE5E90AF10880917200882311F0D1
:1001B0008DE001C080E196DF8FE094DF8AE092DF7E
:1001C00011E080E896E9A8E9B0E089839A83AB83DF
:1001D000BC83812C912C5401C701B60129813A813D
:1001E0004B815C81E1D22115310541055105A9F012
:1001F000822F2D833E834F83588774DF2D813E816C
:100200004F81588569817A818B819C81BED2C61AC3
:10021000D70AE80AF90A10E00DC0C114D104E104BC
:10022000F10431F0112321F08AE05CDF11E002C01B
:1002300080E058DF91E089169104A104B10431F007
:10024000A4E08A169104A104B10411F48AE04ADF03
:10025000BFEF8B1A9B0AAB0ABB0A69817A818B813B
:100260009C812AE030E040E050E09ED229833A832E
:100270004B835C83E8E08E169104A104B10409F07D
:10028000ABCF8AE02FDF8BE02DDF8CE02BDF61E04E
:100290008CE0E5DE61E080E0E2DE809172008823A0
:1002A00011F081E101C08EE01DDF8FE01BDF8AE0ED
:1002B00019DF11E050E8852E56E9952E58E9A52E54
:1002C000B12CC12CD12C7601C301B201A50194013E
:1002D0006BD2211531054105510599F0822F2D83EF
:1002E0003E834F835887FEDE2D813E814F815885A6
:1002F000C501B4014AD2461A570A680A790A10E0C1
:100300000DC0411451046104710431F0112321F036
:100310008AE0E8DE11E002C080E0E4DEF1E0CF1622
:10032000D104E104F10431F084E0C816D104E10401
:10033000F10411F48AE0D6DE9FEFC91AD90AE90A5E
:10034000F90AC501B4012AE030E040E050E02CD2C7
:1003500049015A01A8E0CA16D104E104F10409F0E8
:10036000B3CF8AE0BFDE8BE0BDDE8CE028960FB60F
:10037000F894DEBF0FBECDBFDF91CF911F91FF90EC
:10038000EF90DF90CF90BF90AF909F908F907F9035
:100390006F905F904F90A6CE2FEA8FE793E42150A5
:1003A00080409040E1F700C0000061E082E057DE4D
:1003B00061E082E054DE61E08BE051DE61E080E0EC
:1003C0004EDE61E08FE04BDE60E080E048DE60E022
:1003D00081E045DE61E084E042DE61E080E03FDE16
:1003E00081E062DE89E060DE81E05EDE86E05CDE88
:1003F00081E05ADE87E058DE80E056DE83E054DE9E
:1004000081E052DE87E050DE81E04EDE87E04CDEA8
:1004100081E04ADE87E048DE80E046DE80E044DEC0
:1004200061E084E01CDE61E088E019DE81E03CDE12
:100430008FE03ADE81E038DE81E036DE80E034DED7
:100440008FE032DE81E030DE81E02EDE81E02CDEE6
:100450008EE02ADE80E028DE81E026DE81E024DEF8
:100460008FE022DE80E020DE80E01EDE61E088E0BA
:10047000F6DD61E080E0F3CD949897989698959892
:1004800094988FEF95E30197F1F700C0949A8FEF5E
:1004900095E30197F1F700C094988FEF95E30197EA
:1004A000F1F700C09698969A96989798979A979889
:1004B0000895882311F0959A01C095989698969A78
:1004C00096980895CF92DF92EF92FF92CF93DF93A9
:1004D00020E030E040E85FE421D320E23CEB4EEB4B
:1004E0005CE4F5D161D26B017C01C0E0D0E0D701C2
:1004F000C6010C2E04C0B695A795979587950A94CA
:10050000D2F78170D6DF2196C032D10581F7C8E0DD
:1005100080E0CFDFC150E1F79798979A9798DF91E5
:10052000CF91FF90EF90DF90CF900895CF93DF931E
:1005300000D000D0CDB7DEB787B3836087BBC29A47
:100540008FEF84BB15BA81B3806F81BB82B38C609F
:1005500082BB92DF60E876E988E99BE4B3DF1CDFC9
:1005600020E030E04AE754E460E876E988E99BE47B
:10057000C7DD80B310B314708870182B16951695CC
:10058000E8EE8E2EE3E09E2EA12CB12C80E09DE2C1
:10059000A1E3B1E089839A83AB83BC83F0E8CF2EDB
:1005A000F6E9DF2EF8E9EF2EFBE4FF2E80B390B3DF
:1005B000212F30E088709470892B90E09595879575
:1005C000959587952817390729F4B29B03C0012F09
:1005D000102FECCFB29912C081E09091720091116E
:1005E00080E080937200C501B4010AD29B01AC0186
:1005F000C701B60185DDB29BFECFE9CF00B380B362
:1006000008708470082B06950695133009F04AC0CF
:10061000023009F05AC080917200811128C04980CF
:100620005A806B807C80480C591C6A1C7B1C91E8AA
:10063000491690EF59069AEF690692E0790640F65E
:1006400089819A81AB81BC8184159505A605B70582
:1006500008F0BECFC501B401D3D169837A838B83FF
:100660009C839B01AC01C701B601CDD05CC0AAE060
:10067000B0E0A50194017FD02B013C0191E849161F
:1006800096E9590698E96906710408F0A1CFC301FB
:10069000B201B6D19B01AC01C701B60131DD5301F6
:1006A000420196CF123069F0111103C0013031F4CC
:1006B0008FCF113069F4033021F48ACF023041F436
:1006C00087CF002309F484CF03C0013009F480CF21
:1006D00080917200811136C049805A806B807C8085
:1006E000481859086A087B08A0EC4A16AFEC5A066D
:1006F000AAE66A06710408F46BCF89819A81AB81FE
:10070000BC81481659066A067B0608F061CFC50110
:10071000B40176D169837A838B839C839B01AC017E
:10072000C701B6016FD06B017C01CCDE29813A8113
:100730004B815C81C701B601E3DC49825A826B823E
:100740007C8246CF94E689169104A104B10408F492
:100750003FCFC501B4012AE030E040E050E024D0B2
:1007600049015A01CA01B9014BD19B01AC01C70132
:10077000B601C6DC2DCF3AD0A59F900DB49F900D49
:10078000A49F800D911D11240895DB018F939F93E9
:10079000F2DFBF91AF91A29F800D911DA39F900D9D
:1007A000B29F900D11240895A1E21A2EAA1BBB1B23
:1007B000FD010DC0AA1FBB1FEE1FFF1FA217B3072D
:1007C000E407F50720F0A21BB30BE40BF50B661F43
:1007D000771F881F991F1A9469F760957095809507
:1007E00090959B01AC01BD01CF010895A29FB0017E
:1007F000B39FC001A39F01D0B29F700D811D112432
:10080000911D08955058BB27AA270ED04DC13ED147
:1008100030F043D120F031F49F3F11F41EF433C186
:100820000EF4E095E7FB29C1E92F4FD180F3BA1709
:10083000620773078407950718F071F49EF567C186
:100840000EF4E0950B2EBA2FA02D0B01B9019001EB
:100850000C01CA01A0011124FF27591B99F0593F2F
:1008600050F4503E68F11A16F040A22F232F342F77
:100870004427585FF3CF469537952795A795F040C5
:100880005395C9F77EF41F16BA0B620B730B840BDA
:10089000BAF09150A1F0FF0FBB1F661F771F881F92
:1008A000C2F70EC0BA0F621F731F841F48F48795EA
:1008B00077956795B795F7959E3F08F0B3CF9395D9
:1008C000880F08F09927EE0F9795879508950CD01B
:1008D000EBC0E3D040F0DAD030F021F45F3F19F004
:1008E000CCC0511115C1CFC0F0D098F39923C9F3F2
:1008F0005523B1F3951B550BBB27AA276217730726
:10090000840738F09F5F5F4F220F331F441FAA1FD9
:10091000A9F333D00E2E3AF0E0E830D09150504099
:10092000E695001CCAF729D0FE2F27D0660F771F47
:10093000881FBB1F261737074807AB07B0E809F029
:10094000BB0B802DBF01FF2793585F4F2AF09E3FBE
:10095000510568F092C0DCC05F3FECF3983EDCF3D9
:10096000869577956795B795F7959F5FC9F7880F37
:10097000911D9695879597F90895E1E0660F771F89
:10098000881FBB1F621773078407BA0720F0621B1A
:10099000730B840BBA0BEE1F88F7E095089504D013
:1009A0006894B111B5C0089598D088F09F5790F021
:1009B000B92F9927B751A0F0D1F0660F771F881F84
:1009C000991F1AF0BA95C9F712C0B13081F09FD0C3
:1009D000B1E008959CC0672F782F8827B85F39F061
:1009E000B93FCCF3869577956795B395D9F73EF4E3
:1009F00090958095709561957F4F8F4F9F4F08958B
:100A0000E89409C097FB3EF49095809570956195A8
:100A10007F4F8F4F9F4F9923A9F0F92F96E9BB275E
:100A20009395F695879577956795B795F111F8CFDA
:100A3000FAF4BB0F11F460FF1BC06F5F7F4F8F4F45
:100A40009F4F16C0882311F096E911C0772321F03B
:100A50009EE8872F762F05C0662371F096E8862FD3
:100A600070E060E02AF09A95660F771F881FDAF72A
:100A7000880F9695879597F9089597F99F6780E86D
:100A800070E060E008959FEF80EC089500240A94E0
:100A90001616170618060906089500240A94121659
:100AA0001306140605060895092E0394000C11F48C
:100AB000882352F0BB0F40F4BF2B11F460FF04C039
:100AC0006F5F7F4F8F4F9F4F089557FD9058440F92
:100AD000551F59F05F3F71F04795880F97FB991F9D
:100AE00061F09F3F79F0879508951216130614065A
:100AF000551FF2CF4695F1DF08C0161617061806E7
:100B0000991FF1CF86957105610508940895E894C1
:100B1000BB2766277727CB0197F908950BD0C4CF61
:100B2000B5DF28F0BADF18F0952309F0A6CFABCFD8
:100B30001124EECFCADFA0F3959FD1F3950F50E0BB
:100B4000551F629FF001729FBB27F00DB11D639F7F
:100B5000AA27F00DB11DAA1F649F6627B00DA11D25
:100B6000661F829F2227B00DA11D621F739FB00DCB
:100B7000A11D621F839FA00D611D221F749F33273B
:100B8000A00D611D231F849F600D211D822F762FD4
:100B90006A2F11249F5750408AF0E1F088234AF0D1
:100BA000EE0FFF1FBB1F661F771F881F915050401D
:100BB000A9F79E3F510570F060CFAACF5F3FECF3DD
:100BC000983EDCF3869577956795B795F795E79509
:100BD0009F5FC1F7FE2B880F911D9695879597F91A
:060BE0000895F894FFCF18
:100BE6003031323334353637383990487A66733A8D
:020BF6000001FC
:00000001FF
