:100000000C942A000C9434000C9434000C943400AA
:100010000C9434000C9434000C9434000C94340090
:100020000C9434000C9434000C9434000C94340080
:100030000C9434000C9434000C9434000C94340070
:100040000C9434000C9434000C9434000C94340060
:100050000C94340011241FBECFE5D4E0DEBFCDBF29
:100060000E9488000C9499010C940000DB98D898A9
:10007000D998DA98D99AD998D89AD898089585E0D5
:10008000DB9A8150E9F7DB980895882311F0DA9A1A
:1000900001C0DA98D99AD9980895CF92DF92EF9259
:1000A000FF92CF93DF936B017C01C0E0D0E0D701DA
:1000B000C6010C2E04C0B695A795979587950A940E
:1000C000D2F781700E9445002196C032D10579F7A0
:1000D000C8E080E00E944500C150D9F7D89AD8986E
:1000E000DF91CF91FF90EF90DF90CF90089520E0C7
:1000F00030E040E85FE40E940E010E94B90024E66F
:1001000030E040E050E00E949700CA01B901089534
:100110008FEF8ABB88E08BBB0E943F000E943600B5
:1001200068E27CE58FE892E00E944D00FFCFA1E2FB
:100130001A2EAA1BBB1BFD010DC0AA1FBB1FEE1F61
:10014000FF1FA217B307E407F50720F0A21BB30BAC
:10015000E40BF50B661F771F881F991F1A9469F728
:1001600060957095809590959B01AC01BD01CF0184
:10017000089533D088F09F5790F0B92F9927B75141
:10018000A0F0D1F0660F771F881F991F1AF0BA955B
:10019000C9F712C0B13081F03AD0B1E0089537C04C
:1001A000672F782F8827B85F39F0B93FCCF3869551
:1001B00077956795B395D9F73EF4909580957095AE
:1001C00061957F4F8F4F9F4F089557FD9058440F73
:1001D000551F59F05F3F71F04795880F97FB991FA6
:1001E00061F09F3F79F08795089512161306140663
:1001F000551FF2CF4695F1DF08C0161617061806F0
:10020000991FF1CF86957105610508940895E894CA
:10021000BB2766277727CB0197F908950BD078C0C5
:1002200069D028F06ED018F0952309F05AC05FC04D
:100230001124EECFCADFA0F3959FD1F3950F50E0C4
:10024000551F629FF001729FBB27F00DB11D639F88
:10025000AA27F00DB11DAA1F649F6627B00DA11D2E
:10026000661F829F2227B00DA11D621F739FB00DD4
:10027000A11D621F839FA00D611D221F749F332744
:10028000A00D611D231F849F600D211D822F762FDD
:100290006A2F11249F5750408AF0E1F088234AF0DA
:1002A000EE0FFF1FBB1F661F771F881F9150504026
:1002B000A9F79E3F510570F014C0AACF5F3FECF341
:1002C000983EDCF3869577956795B795F795E79512
:1002D0009F5FC1F7FE2B880F911D9695879597F923
:1002E000089597F99F6780E870E060E008959FEFB8
:1002F00080EC089500240A941616170618060906BD
:10030000089500240A94121613061406050608958B
:10031000092E0394000C11F4882352F0BB0F40F413
:10032000BF2B11F460FF04C06F5F7F4F8F4F9F4F53
:060330000895F894FFCFD0
:00000001FF
